:020000040800F2
:10000000700A0020890100085D140008151300081B
:100010005914000891020008191B00080000000094
:10002000000000000000000000000000E1190008CE
:100030009502000800000000CD140008391A0008DD
:10004000A3010008A3010008A3010008A301000800
:10005000A3010008A3010008A3010008A3010008F0
:10006000A3010008A3010008A3010008A3010008E0
:10007000A3010008A3010008A3010008A3010008D0
:10008000A3010008A3010008A3010008A3010008C0
:10009000A3010008A3010008A3010008A3010008B0
:1000A000A3010008A3010008A3010008A3010008A0
:1000B000A3010008A3010008A3010008A301000890
:1000C000A3010008A3010008A3010008A301000880
:1000D000A3010008A3010008A3010008A301000870
:1000E000A3010008A3010008A301000800F002F822
:1000F00000F03AF80AA090E8000C82448344AAF188
:100100000107DA4501D100F02FF8AFF2090EBAE885
:100110000F0013F0010F18BFFB1A43F0010318473B
:10012000A85D0000C85D0000103A24BF78C878C1FF
:10013000FAD8520724BF30C830C144BF04680C60ED
:10014000704700000023002400250026103A28BF35
:1001500078C1FBD8520728BF30C148BF0B60704739
:100160001FB51FBD10B510BD00F058F81146FFF7C0
:10017000F7FF01F0D3FF00F076F803B4FFF7F2FFCA
:1001800003BC00F07DF8000009488047094800479B
:10019000FEE7FEE7FEE7FEE7FEE7FEE7FEE7FEE737
:1001A000FEE7FEE704480549054A064B7047000094
:1001B000AD1A0008ED00000870040020700A00204D
:1001C00070060020700600204FF0000200B51346B4
:1001D00094469646203922BFA0E80C50A0E80C5067
:1001E000B1F12001BFF4F7AF090728BFA0E80C5018
:1001F00048BF0CC05DF804EB890028BF40F8042B11
:1002000008BF704748BF20F8022B11F0804F18BF7D
:1002100000F8012B7047704770477047754600F033
:100220002BF8AE4605006946534620F00700854688
:1002300018B020B5FFF7B6FFBDE820404FF000062C
:100240004FF000074FF000084FF0000BAC46ACE851
:10025000C009ACE8C009ACE8C009ACE8C00921F0AD
:1002600007018D46704710B50446AFF30080204665
:10027000BDE81040FFF781BF0048704738000020FC
:1002800001491820ABBEFEE72600020070470000BF
:10029000FFE7FEE77047000081B0EFF3108072B611
:1002A0000090FFE7FEE7000080B584B0039000F007
:1002B000DDF90290039801900198013048B1FFE701
:1002C00040F22C00C2F2000001780198084401902D
:1002D000FFE7FFE700F0CAF90299401A0199884246
:1002E00001D2FFE7F6E704B080BD000090B00F90A8
:1002F0000E9100200D900990FFE70E9800680D996F
:10030000C840002800F07F81FFE70D990120884058
:100310000C900E9800680C9908400B900B980C9963
:10032000884240F06C81FFE70E98406805900028F5
:1003300051D0FFE7059801283AD0FFE70598022839
:100340003FD0FFE7059803285FD0FFE70598112805
:1003500032D0FFE70598122838D0FFE70598002132
:10036000C1F21101884236D0FFE705980021C1F2A1
:10037000120188422FD0FFE705980021C1F2210128
:10038000884228D0FFE705980021C1F22201884267
:1003900021D0FFE705980021C1F2310188421AD02F
:1003A000FFE705980021C1F23201884213D02FE007
:1003B0000E98C06809902CE00E98C068043009902F
:1003C00027E00E98C0680830099022E00E98C068B7
:1003D0000C3009901DE00E98806818B9FFE70420E2
:1003E000099011E00E988068012806D1FFE70820E7
:1003F00009900C980F99086105E0082009900C9865
:100400000F994861FFE7FFE703E00020099000E053
:10041000FFE70B98FF2803D8FFE70F98049003E04D
:100420000F9804300490FFE7049808900B98FF2879
:1004300004D8FFE70D988000039006E00D996FF057
:100440001F0000EB81000390FFE7039807900898D6
:100450000068079A0F219140884309999140084309
:10046000089908600E98C079C006002840F1C6803F
:10047000FFE7FFE741F21800C4F20200016841F013
:1004800001010160006800F0010006900698FFE796
:100490000D9820F003000821C4F2010140580A9091
:1004A0000D9800F0030081000F2000FA01F10A9876
:1004B00088430A900F9840F60001C4F20101884277
:1004C00003D1FFE70020029026E00F9840F600419C
:1004D000C4F20101884203D1FFE70120019018E036
:1004E0000F9841F20001C4F20101884203D1FFE7F5
:1004F000022000900AE00F9941F20042C4F201028A
:100500000420914208BF03200090FFE7009801906B
:10051000FFE701980290FFE702980D9901F00301AF
:10052000890000FA01F10A9808430A900A980D9987
:1005300021F003010822C4F2010288500E9880794C
:10054000C00748B1FFE70B9A40F20041C4F2010135
:1005500008681043086008E00B9A40F20041C4F2BA
:100560000101086890430860FFE70E9880798007D2
:10057000002809D5FFE70B9A40F20441C4F20101BB
:1005800008681043086008E00B9A40F20441C4F286
:100590000101086890430860FFE70E988079C00663
:1005A000002809D5FFE70B9A40F20841C4F2010187
:1005B00008681043086008E00B9A40F20841C4F252
:1005C0000101086890430860FFE70E988079800673
:1005D000002809D5FFE70B9A40F20C41C4F2010153
:1005E00008681043086008E00B9A40F20C41C4F21E
:1005F0000101086890430860FFE7FFE7FFE70D98F7
:1006000001300D9079E610B07047000082B0019083
:10061000ADF8021001988068BDF80210084204D0BD
:10062000FFE701208DF8010003E000208DF80100B4
:10063000FFE79DF8010002B07047000082B0019012
:10064000ADF802108DF801209DF8010028B1FFE7F8
:10065000BDF802000199086105E0BDF80200000440
:1006600001990861FFE702B07047000040F26C405A
:10067000C2F200000068704740F22C00C2F2000095
:10068000027840F26C41C2F2000108681044086030
:100690007047000080B542F20001C4F20201086810
:1006A00040F010000860032000F08CF80F2000F0EC
:1006B00005F800F03BF8002080BD000080B582B056
:1006C000009040F22800C2F20000006840F22C01C5
:1006D000C2F200010A784FF47A71B1FBF2F1B0FB7B
:1006E000F1F000F00FFE20B1FFE701208DF80700C8
:1006F00018E000980F280DD8FFE700994FF0FF3061
:10070000002200F045F8009840F23001C2F20001EA
:10071000086003E001208DF8070003E000208DF859
:100720000700FFE79DF8070002B080BD83B0FFE738
:1007300041F21800C4F20200016841F001010160B9
:10074000006800F0010002900298FFE7FFE741F225
:100750001C00C4F20200016841F080510160006891
:1007600000F0805001900198FFE7FFE70421C4F2F8
:10077000010108680090009820F0E0600090009867
:1007800040F00070009000980860FFE703B07047E9
:1007900080B586B08DF81700049103920020029076
:1007A00001F0BCF902909DF917000190029804999C
:1007B000039A00F055FE0146019801F0B7F906B022
:1007C00080BD000080B582B00190019801F0D0F9A1
:1007D00002B080BD80B584B002900191029820B92A
:1007E000FFE701208DF80F001BE1019842F20001A4
:1007F000C4F20201096801F00701884216D9FFE737
:1008000042F20000C4F20200016821F00701019ADF
:1008100011430160006800F007000199884204D08C
:10082000FFE701208DF80F00FBE0FFE7029800785A
:10083000800700282AD5FFE70298007840070028A3
:1008400009D5FFE741F20401C4F20201086840F44F
:10085000E0600860FFE7029800780007002809D5EB
:10086000FFE741F20401C4F20201086840F460505D
:100870000860FFE741F20401C4F20201086820F0B9
:10088000F000029A926810430860FFE7029800782F
:10089000C007002860D0FFE70298406801280ED109
:1008A000FFE741F20000C4F2020000688003002864
:1008B00004D4FFE701208DF80F00B2E021E0029898
:1008C000406802280ED1FFE741F20000C4F20200A6
:1008D00000688001002804D4FFE701208DF80F0094
:1008E0009FE00DE041F20000C4F2020000688007C2
:1008F000002804D4FFE701208DF80F0091E0FFE706
:10090000FFE741F20401C4F20201086820F003008D
:10091000029A526810430860FFF7A8FE0090FFE7B4
:1009200041F20400C4F20200006800F00C000299D9
:100930004968B0EB810F0ED0FFE7FFF797FE0099F3
:10094000401A41F28931884204D3FFE703208DF831
:100950000F0066E0E4E7FFE7019842F20001C4F20D
:100960000201096801F00701884216D2FFE742F24E
:100970000000C4F20200016821F00701019A11434E
:100980000160006800F007000199884204D0FFE789
:1009900001208DF80F0044E0FFE70298007840073F
:1009A00000280CD5FFE741F20401C4F202010868F7
:1009B00020F4E060029AD26810430860FFE70298D2
:1009C0000078000700280DD5FFE741F20401C4F2CA
:1009D0000201086820F46050029A126940EAC200DD
:1009E0000860FFE700F022F841F20401C4F20201BE
:1009F0000968C9B20A0942F2DA11C0F60001895C3D
:100A0000C84040F22801C2F20001086040F2300004
:100A1000C2F200000068FFF751FE00208DF80F00C1
:100A2000FFE79DF80F0004B080BD00008BB040F6DA
:100A30000E70C1F210000A9040F60A30C0F60C5059
:100A4000099040F20670C0F60810089040F202309B
:100A5000C0F20450079040F20120ADF81A000020C7
:100A60000590049003900290019041F20400C4F2BA
:100A7000020000680590059800F00C000146009106
:100A8000E0B3FFE70098042804D0FFE700980828A7
:100A900006D034E041F20020C0F27A00019034E048
:100AA0000598C0F3834107A8405C02909DF81600AA
:100AB000C007C0B1FFE741F20400C4F202000068C1
:100AC00000F400310DF11A0040EA51400078049022
:100AD000029841F20021C0F27A0148430499B0FB28
:100AE000F1F0039007E0029840F60011C0F23D01DA
:100AF00048430390FFE70398019006E0FFE741F2C7
:100B00000020C0F27A000190FFE701980BB0704717
:100B100080B586B00490049820B9FFE701208DF8D5
:100B200017002EE304980078C007002800F0AE807C
:100B3000FFE741F20400C4F20200006800F00C007C
:100B4000042813D0FFE741F20400C4F20200006859
:100B500000F00C0008281BD1FFE741F20400C4F2AA
:100B600002000068C003002812D5FFE741F2000030
:100B7000C4F2020000688003002808D5FFE704984B
:100B8000406820B9FFE701208DF81700F9E27CE00A
:100B9000FFE704984068B0F5803F09D1FFE741F2D4
:100BA0000001C4F20201086840F48030086032E0BD
:100BB0000498406868B9FFE741F20001C4F20201FD
:100BC000086820F480300860086820F480200860FD
:100BD00020E004984068B0F5A02F0DD1FFE741F266
:100BE0000001C4F20201086840F48020086008682F
:100BF00040F4803008600CE041F20001C4F20201D0
:100C0000086820F480300860086820F480200860BC
:100C1000FFE7FFE7FFE7FFE704984068D0B1FFE791
:100C2000FFF724FD0390FFE741F20000C4F2020049
:100C30000068800300280CD4FFE7FFF717FD039935
:100C4000401A652804D3FFE703208DF8170098E2C7
:100C5000EAE719E0FFF70AFD0390FFE741F2000021
:100C6000C4F202000068800300280CD5FFE7FFF7FC
:100C7000FDFC0399401A652804D3FFE703208DF893
:100C800017007EE2EAE7FFE7FFE7FFE70498007856
:100C90008007002840F18D80FFE741F20400C4F294
:100CA0000200006810F00C0F13D0FFE741F20400BF
:100CB000C4F20200006800F00C00082829D1FFE708
:100CC00041F20400C4F202000068C003002820D4EE
:100CD000FFE741F20000C4F202000068800700282C
:100CE00009D5FFE704980069012804D0FFE7012037
:100CF0008DF8170045E241F20001C4F202010868D4
:100D000020F0F800049A526940EAC2000860FFE748
:100D10004EE00498006958B3FFE70021C4F2422175
:100D200001200860FFF7A2FC0390FFE741F20000FA
:100D3000C4F202000068800700280CD4FFE7FFF728
:100D400095FC0399401A032804D3FFE703208DF88C
:100D5000170016E2EAE741F20001C4F20201086856
:100D600020F0F800049A526940EAC20008601EE0D0
:100D70000021C4F2422100200860FFF777FC0390B5
:100D8000FFE741F20000C4F202000068800700287B
:100D90000CD5FFE7FFF76AFC0399401A032804D338
:100DA000FFE703208DF81700EBE1EAE7FFE7FFE735
:100DB000FFE7049800780007002848D5FFE704986B
:100DC000806918B3FFE740F28041C4F2422101205C
:100DD0000860FFF74BFC0390FFE741F22400C4F2E8
:100DE00002000068800700280CD4FFE7FFF73EFCF4
:100DF0000399401A032804D3FFE703208DF8170056
:100E0000BFE1EAE7012000F063FB1FE040F2804110
:100E1000C4F2422100200860FFF728FC0390FFE79E
:100E200041F22400C4F202000068800700280CD5BB
:100E3000FFE7FFF71BFC0399401A032804D3FFE7E1
:100E400003208DF817009CE1EAE7FFE7FFE704982D
:100E500000784007002840F1D880FFE700208DF897
:100E6000070041F21C00C4F202000068C000002824
:100E700013D4FFE7FFE741F21C00C4F2020001684F
:100E800041F080510160006800F0805000900098AF
:100E9000FFE701208DF80700FFE747F20000C4F2EA
:100EA00000000068C005002822D4FFE747F20001D7
:100EB000C4F20001086840F480700860FFF7D6FBB8
:100EC0000390FFE747F20000C4F200000068C0058D
:100ED00000280CD4FFE7FFF7C9FB0399401A6528E7
:100EE00004D3FFE703208DF817004AE1EAE7FFE7A4
:100EF000FFE70498C068012809D1FFE741F220010B
:100F0000C4F20201086840F00100086031E0049872
:100F1000C06868B9FFE741F22001C4F20201086825
:100F200020F001000860086820F0040008601FE05D
:100F30000498C06805280DD1FFE741F22001C4F2F2
:100F40000201086840F004000860086840F00100F1
:100F500008600CE041F22001C4F20201086820F0B0
:100F600001000860086820F004000860FFE7FFE760
:100F7000FFE7FFE70498C068E0B1FFE7FFF776FB03
:100F80000390FFE741F22000C4F2020000688007EE
:100F900000280ED4FFE7FFF769FB0399401A41F2DE
:100FA0008931884204D3FFE703208DF81700E8E079
:100FB000E8E71BE0FFF75AFB0390FFE741F2200050
:100FC000C4F202000068800700280ED5FFE7FFF793
:100FD0004DFB0399401A41F28931884204D3FFE75F
:100FE00003208DF81700CCE0E8E7FFE79DF8070045
:100FF000012809D1FFE741F21C01C4F2020108688F
:1010000020F080500860FFE7FFE70498C0690028DF
:1010100000F0B380FFE741F20400C4F20200006870
:1010200000F00C00082800F08280FFE70498C069F7
:1010300002285CD1FFE76021C4F242210020086051
:10104000FFF714FB0390FFE741F20000C4F2020037
:101050000068800100280CD5FFE7FFF707FB039924
:10106000401A032804D3FFE703208DF8170088E017
:10107000EAE70498006AB0F5803F0CD1FFE741F23F
:101080000401C4F20201086820F40030049A926856
:1010900010430860FFE741F20401C4F2020108684E
:1010A00020F47410049B1A6A5B6A1A4310430860A8
:1010B0006021C4F2422101200860FFF7D7FA0390B3
:1010C000FFE741F20000C4F202000068800100283E
:1010D0000CD4FFE7FFF7CAFA0399401A032804D398
:1010E000FFE703208DF817004BE0EAE71EE06021E0
:1010F000C4F2422100200860FFF7B8FA0390FFE72E
:1011000041F20000C4F202000068800100280CD502
:10111000FFE7FFF7ABFA0399401A032804D3FFE770
:1011200003208DF817002CE0EAE7FFE724E004989D
:10113000C069012804D1FFE701208DF8170020E0E5
:1011400041F20400C4F2020000680290029800F428
:1011500080300499096A884208D1FFE7029800F4B8
:1011600070100499496A884204D0FFE701208DF885
:10117000170006E0FFE7FFE7FFE700208DF8170004
:10118000FFE79DF8170006B080BD000080B584B071
:101190000290029820B9FFE701208DF80F006DE062
:1011A0000298406A60B9FFE702984068B0F5827F14
:1011B00001D1FFE703E002990020C861FFE705E0E5
:1011C00002990020086102994861FFE70299002016
:1011D0008862029890F8510040B9FFE70299002018
:1011E00081F85000029800F04DF8FFE702990220C4
:1011F00081F8510002980168086820F040000860FA
:10120000029A019211685068D2F808C0D36800F4BD
:1012100082700CF4044C604403F4006318441369B6
:1012200003F002031844536903F00103184493695F
:1012300003F400731844D36903F038031844136AA5
:1012400003F080031843926A02F4005210430860CE
:101250000299488B00F00400096848600298016810
:10126000C86920F40060C861029900204865029AAC
:10127000012182F851108DF80F00FFE79DF80F0053
:1012800004B080BD80B588B007900020069005901E
:10129000049003900798006843F20001C4F2010132
:1012A00088422CD1FFE7FFE741F21800C4F20200A8
:1012B000016841F480510160006800F480500290A0
:1012C0000298FFE7FFE741F21800C4F2020001684C
:1012D00041F004010160006800F0040001900198F1
:1012E000FFE7A0200390022004900320069040F620
:1012F0000000C4F2010003A9FEF7F8FFFFE708B001
:1013000080BD000080B582B00190019800F06AFBBA
:1013100002B080BDFFE7FEE780B58EB000200D90E3
:101320000C900B900A90FFE741F21800C4F2020003
:10133000016841F020010160006800F02000099080
:101340000998FFE7FFE741F21800C4F202000168C4
:1013500041F004010160006800F004000890089862
:10136000FFE7FFE741F21800C4F20200016841F014
:1013700008010160006800F0080007900798FFE787
:1013800040F60000C4F201000290162100220392F0
:10139000FFF754F90298022101910A910122049267
:1013A0000B920C910D910AA90691FEF79FFF019AED
:1013B0000298039BDDF810C006994FF0140ECDF88B
:1013C00028E0CDF82CC00C930D92FEF78FFF049807
:1013D00006990A900022C1F211020B920C9040F67D
:1013E0000040C4F201000590FEF780FF039B049AC1
:1013F000059806994FF4704CCDF828C00B930C92C9
:10140000FEF774FF0EB080BD80B582B040F2980048
:10141000C2F20000019043F20001C4F20101016038
:101420004FF48271416000218160C16001614161BE
:101430004FF4007282610822C261016241628162DE
:101440000A21C162FFF7A2FE18B1FFE7FEF724FFF1
:10145000FFE702B080BD0000FFE7FEE7FFE7FEE721
:1014600088B0079006910592079800F00700049055
:101470000498C0F10700052803D3FFE7042001907A
:1014800004E00498C0F107000190FFE70198039081
:1014900004980430062803D8FFE70020009003E0FA
:1014A000049803380090FFE700980290069803998B
:1014B000012202FA01F101390840029B9840059986
:1014C0009A40013A1140084308B070477047000045
:1014D00082B00190019840F22801C2F2000109682F
:1014E000C90844F6D352C1F26202A1FB0221890964
:1014F00048430090FFE700BFFFE70098411E0091BE
:101500000028F8D1FFE702B07047000080B588B02E
:1015100084460A98ADF81EC0ADF81C10ADF81A202C
:10152000ADF81830ADF8160040F60000C4F2010026
:101530000090102100220192FFF780F8BDF81E00F4
:10154000BDF81A10013989B200F0F2F9BDF81C009B
:10155000BDF81810013989B200F00AFA2C2000F009
:101560009BF90098BDF81A10BDF81E20891ABDF825
:101570001820BDF81C30D21A514304919DF8171061
:101580008DF80E10BDF816108DF80F1004210122F1
:10159000FFF754F801980290FFE7029804998842F7
:1015A0000DD2FFE79DF80E0000F05EF99DF80F00E8
:1015B00000F05AF9FFE7029801300290EDE700F0E1
:1015C000F7F940F60000C4F2010010210122FFF7F4
:1015D00035F808B080BD000080B582B0ADF80600D7
:1015E000BDF8060069460860002182228323084670
:1015F000FFF78CFF02B080BD80B592B043F20001CE
:10160000C4F20101086840F04000086040F60000A4
:10161000C4F201000F901021109100220B92FFF7ED
:101620000DF80F9802210C9101221192FFF706F894
:1016300005200490FEF738FE0B9A0C990F98FEF7E0
:10164000FDFF0498FEF730FE0C990F98119AFEF7F3
:10165000F5FF0498FEF728FE119800F01DF996207A
:10166000FEF722FE112000F017F94FF4FA70FEF792
:101670001BFEB12000F010F9119800F021F92C2088
:10168000079000F01DF92D20089000F019F9B22004
:1016900000F002F9119800F013F9079800F010F922
:1016A000089800F00DF9B32000F0F6F8119800F05A
:1016B00007F9079800F004F9089800F001F911986B
:1016C00000F0FEF8079800F0FBF8089800F0F8F832
:1016D000B42000F0E1F80720069000F0F1F8C020F7
:1016E000039000F0D9F8A22000F0EAF80C9800F07E
:1016F000E7F8842000F0E4F8C12000F0CDF8C52020
:10170000029000F0DDF8C22000F0C6F80A200D902B
:1017100000F0D6F80B9800F0D3F8C32000F0BCF826
:101720008A20019000F0CCF82A2000F0C9F8C420EB
:1017300000F0B2F8019800F0C3F8EE2000F0C0F815
:10174000029800F0A9F80E2000F0BAF8202000F06E
:10175000A3F8362000F0A0F8039800F0B1F83A2082
:1017600000F09AF8049800F0ABF8E02000F094F84C
:101770000C9800F0A5F81C2000F0A2F8069800F0E4
:101780009FF8122000F09CF837200A9000F098F89B
:10179000322000F095F829200E9000F091F808987A
:1017A00000F08EF80E9800F08BF8252000F088F8F5
:1017B0002B2000F085F8392000F082F80B9800F01B
:1017C0007FF8119800F07CF80320059000F078F87D
:1017D000109800F075F8E12000F05EF8059800F030
:1017E0006FF81D2000F06CF8069800F069F80620EC
:1017F00000F066F82E20099000F062F8079800F0DB
:101800005FF80E9800F05CF8089800F059F8099815
:1018100000F056F8099800F053F80A9800F050F8D4
:101820003F2000F04DF80B9800F04AF80B9800F0BC
:1018300047F80C9800F044F8109800F041F8132095
:1018400000F02AF80D98FEF72FFD0E9800F024F80E
:101850006420FEF729FD0F981099119AFEF7EEFE0D
:1018600000F026F912B080BD81B08DF80300FFE7CB
:1018700043F20800C4F2010000688007002801D488
:10188000FFE7F5E79DF8030043F20C01C4F2010104
:10189000086001B07047000080B582B08DF8070085
:1018A00040F60000C4F2010004210022FEF7C6FE4B
:1018B0009DF80700FFF7D8FF00F07AF802B080BD6E
:1018C00080B582B08DF8070040F60000C4F2010038
:1018D00004210122FEF7B2FE9DF80700FFF7C4FFC6
:1018E00000F066F802B080BD80B584B0039002912C
:1018F00040F60000C4F2010004210122FEF79EFE22
:1019000000200190FFE70198029988420CD2FFE77E
:1019100003980078FFF7A8FF039801300390FFE7D2
:10192000019801300190EEE700F042F804B080BD6C
:1019300080B582B0ADF80600ADF804109DF8070040
:101940008DF80000BDF806008DF801009DF8050037
:101950008DF80200BDF804008DF803002A20FFF77F
:101960009BFF68460421FFF7BFFF02B080BD000067
:1019700080B582B0ADF80600ADF804109DF8070000
:101980008DF80000BDF806008DF801009DF80500F7
:101990008DF80200BDF804008DF803002B20FFF73E
:1019A0007BFF68460421FFF79FFF02B080BD000067
:1019B000FFE743F20800C4F2010000688007002836
:1019C00001D4FFE7F5E7FFE743F20800C4F20100A6
:1019D00000680006002801D5FFE7F5E77047000022
:1019E0007047000080B582B0009000980138B0F1D7
:1019F000807F03D3FFE70120019019E000980138B0
:101A00004EF21401CEF2000108604FF0FF300F21BA
:101A100000F08CF84EF21801CEF2000100200860B0
:101A20004EF21002CEF20002072111600190FFE792
:101A3000019802B080BD000080B5FEF71DFE80BD9C
:101A400080B590B006A800902821FEF7BDFB009855
:101A500000230593049303930293019301220692BA
:101A60004FF48031079108930A9202220D920E9151
:101A70004FF400210F91FFF74BF818B1FFE7FEF785
:101A80000BFCFFE70F200190022002900020039042
:101A90000490059001A80121FEF79CFE18B1FFE714
:101AA000FEF7FAFBFFE710B080BD000070470000B2
:101AB00040F22001C2F200010820C8800520888081
:101AC00040F20001C2F200010C20C880072088808B
:101AD00040F20800C2F200001021C1800B21818079
:101AE00040F21002C2F200021421D1800E21918036
:101AF00040F21802C2F200021821D1801121918017
:101B000040F2F001C2F2000100224A804FF4FC6270
:101B10000A80486070470000FFE7FEE74EF60C5071
:101B2000CEF200000068C0F30220704782B08DF84A
:101B3000070000919DF9070000280AD4FFE70098EC
:101B400000019DF907104EF20042CEF200028854C7
:101B50000BE0009800019DF8071001F00F014EF610
:101B60001452CEF200028854FFE702B07047000022
:101B700083B00290029800F0070000904EF60C51DE
:101B8000CEF200010868019001984FF6FF02104064
:101B900001900198009A40EA02200022C0F2FA5215
:101BA000104301900198086003B0704780B588B079
:101BB0000320079006900A20059000200490012140
:101BC00003910290FFE7029814281DDCFFE7002034
:101BD0000190FFE70198142811DCFFE7029840F21A
:101BE000F802C2F200022A2100FB0121019A002022
:101BF00021F81200FFE7019801300190EAE7FFE7C2
:101C0000029801300290DEE7FFE70398012840F0D8
:101C10008A80FFE740F60040C4F201004FF4805193
:101C2000FEF7F4FCA8B9FFE707980138079007987A
:101C300040F2F802C2F200022A2100FB0121069ABA
:101C4000012021F812001420FEF72EFB00F084FA88
:101C5000FFE740F60040C4F201004FF40051FEF7E8
:101C6000D5FCA8B9FFE7069801300690079840F226
:101C7000F802C2F200022A2100FB0121069A01208B
:101C800021F812001420FEF70FFB00F065FAFFE7C1
:101C900040F60040C4F201004FF48041FEF7B6FC6C
:101CA000A8B9FFE7069801380690079840F2F802B5
:101CB000C2F200022A2100FB0121069A012021F82C
:101CC00012001420FEF7F0FA00F046FAFFE740F6A3
:101CD0000040C4F201004FF40041FEF797FCA8B9A0
:101CE000FFE7079801300790079840F2F802C2F228
:101CF00000022A2100FB0121069A012021F812008E
:101D00001420FEF7D1FA00F027FAFFE740F6004072
:101D1000C4F201000121FEF779FC18B9FFE70020A9
:101D20000390FFE771E708B080BD0000ADF5657D69
:101D3000002006900590FFE70598142822DCFFE7B5
:101D400000200490FFE70498142816DCFFE70599AB
:101D500040F2F800C2F200002A2301FB0300049ABB
:101D600030F812000DF11E0C01FB03C121F8120026
:101D7000FFE7049801300490E5E7FFE7059801309C
:101D80000590D9E700200390FFE70398142800F39B
:101D90009981FFE700200290FFE70298142800F3E2
:101DA0008C81FFE7039840F2F802C2F200022A2178
:101DB00000FB0120029930F91100002840F0B380A7
:101DC000FFE7039840F2F802C2F200022A2100FB6A
:101DD0000120029900EB4100B0F92800012804D14C
:101DE000FFE7069801300690FFE7039840F2F802FB
:101DF000C2F200022A2100FB0120029900EB4100FF
:101E0000B0F92A00012804D1FFE7069801300690B6
:101E1000FFE7039840F2F802C2F200022A2100FB19
:101E20000120029900EB4100B0F92C00012804D1F7
:101E3000FFE7069801300690FFE7039840F2F802AA
:101E4000C2F200022A2100FB0120029900EB4100AE
:101E500030F92C0C012804D1FFE7069801300690D8
:101E6000FFE7039840F2F802C2F200022A2100FBC9
:101E70000120029900EB410030F92A0C012804D11D
:101E8000FFE7069801300690FFE7039840F2F8025A
:101E9000C2F200022A2100FB0120029900EB41005E
:101EA00030F9280C012804D1FFE70698013006908C
:101EB000FFE7039840F2F802C2F200022A2100FB79
:101EC0000120029900EB4100B0F90200012804D181
:101ED000FFE7069801300690FFE7039840F2F8020A
:101EE000C2F200022A2100FB0120029900EB41000E
:101EF00030F9020C012804D1FFE706980130069062
:101F0000FFE7069803280BD1FFE703980DF11E02A7
:101F10002A2100FB0121029A012021F81200FFE78B
:101F200000200690FFE7039840F2F802C2F2000298
:101F30002A2100FB0120029930F91100012840F00C
:101F4000B780FFE7039840F2F802C2F200022A21AC
:101F500000FB0120029900EB4100B0F928000128A4
:101F600004D1FFE7069801300690FFE7039840F29E
:101F7000F802C2F200022A2100FB0120029900EBC4
:101F80004100B0F92A00012804D1FFE7069801308A
:101F90000690FFE7039840F2F802C2F200022A21FD
:101FA00000FB0120029900EB4100B0F92C00012850
:101FB00004D1FFE7069801300690FFE7039840F24E
:101FC000F802C2F200022A2100FB0120029900EB74
:101FD000410030F92C0C012804D1FFE706980130AC
:101FE0000690FFE7039840F2F802C2F200022A21AD
:101FF00000FB0120029900EB410030F92A0C012876
:1020000004D1FFE7069801300690FFE7039840F2FD
:10201000F802C2F200022A2100FB0120029900EB23
:10202000410030F9280C012804D1FFE7069801305F
:102030000690FFE7039840F2F802C2F200022A215C
:1020400000FB0120029900EB4100B0F902000128D9
:1020500004D1FFE7069801300690FFE7039840F2AD
:10206000F802C2F200022A2100FB0120029900EBD3
:10207000410030F9020C012804D1FFE70698013035
:102080000690FFE70698032804DCFFE7069801287E
:102090000BDCFFE703980DF11E022A2100FB012152
:1020A000029A002021F81200FFE700200690FFE7C7
:1020B000FFE70298013002906FE6FFE703980130D6
:1020C000039062E600200190FFE70198142822DCCB
:1020D000FFE700200090FFE70098142816DCFFE7D8
:1020E00001990DF11E002A2301FB0300009A30F82C
:1020F000120040F2F80CC2F2000C01FB03C121F8FF
:102100001200FFE7009801300090E5E7FFE7019833
:1021100001300190D9E70DF5657D704780B582B03B
:1021200000200190FEF7B6FAFFF78AFCFFF7F4F8FB
:10213000FFF76AF9FFF760FA4FF6FF70FFF74CFA06
:10214000FFF734FDFFE74FF6FF70FFF745FAFFF7A3
:10215000EDFD00F001F8F6E780B584B000200390B3
:10216000FFE70398142836DCFFE700200290FFE722
:10217000029814282ADCFFE7039840F2F802C2F222
:1021800000022A2100FB0120029930F911000128E8
:1021900017D1FFE7039A9000DDF808C04FEA8C01E1
:1021A000042303EB820203EB8C03EE464FF0000C9A
:1021B000CEF800C092B29BB280B289B2FFF7A6F906
:1021C000FFE7FFE7029801300290D1E7FFE70398AD
:1021D00001300390C5E704B080BD0000000000009E
:1021E00000000102030406070809000000000000C7
:1021F000000000000000001010101010000010007F
:102200000000006C484800000000000000000014BE
:1022100014287C287C28505000000010384040389A
:10222000487010100000002050200C7008140800A6
:102230000000000000182020544834000000001066
:10224000101010000000000000000008081010101E
:10225000101010080800002020101010101010207E
:10226000200000107C102828000000000000000062
:10227000101010FE10101000000000000000000000
:1022800000181030200000000000007C000000005A
:1022900000000000000000000030300000000004DA
:1022A0000408081010202040000000384444444432
:1022B00044443800000000301010101010107C0052
:1022C000000000384404081020447C00000000385E
:1022D00044041804044438000000000C141424447E
:1022E0007E040E000000003C202038040444380026
:1022F0000000001C20407844444438000000007C6A
:102300004404080808101000000000384444384411
:1023100044443800000000384444443C0408700041
:1023200000000000003030000030300000000000ED
:102330000018180000183020000000000C10608009
:1023400060100C000000000000007C007C00000019
:1023500000000000C02018041820C0000000000089
:10236000182404081000300000003844444C545431
:102370004C40443800000030102828287C44EE00EF
:10238000000000F8444478444444F8000000003C55
:102390004440404040443800000000F04844444479
:1023A0004448F000000000FC445070504044FC00E1
:1023B0000000007E22283828202070000000003C09
:1023C0004440404E44443800000000EE44447C4405
:1023D0004444EE000000007C1010101010107C002F
:1023E0000000003C0808084848483000000000EEA3
:1023F000444850704844E60000000070202020202F
:1024000024247C00000000EE6C6C54544444EE0024
:10241000000000EE64645454544CEC00000000389A
:1024200044444444444438000000007824242438C0
:102430002020700000000038444444444444381CC8
:10244000000000F8444444784844E20000000034AE
:102450004C40380404645800000000FE9210101034
:1024600010103800000000EE444444444444380056
:10247000000000EE4444282828101000000000EE60
:102480004444545454542800000000C644281010FA
:102490002844C600000000EE442828101010380020
:1024A0000000007C4408101020447C00000000382C
:1024B0002020202020202020380000402020201034
:1024C000100808080000003808080808080808086C
:1024D0003800001010284400000000000000000038
:1024E000000000000000000000FE001008000000D6
:1024F00000000000000000000038443C44443E005E
:10250000000000C0405864444444F800000000004B
:10251000003C4440404438000000000C04344C446B
:1025200044443E00000000000038447C40403C0031
:102530000000001C207C202020207C0000000000E7
:1025400000364C4444443C04380000C040586444C5
:102550004444EE00000000100070101010107C00C9
:10256000000000100078080808080808700000C083
:10257000405C48705048DC00000000301010101023
:1025800010107C000000000000E854545454FE0079
:102590000000000000D864444444EE000000000045
:1025A00000384444444438000000000000D864442B
:1025B00044447840E000000000364C4444443C046D
:1025C0000E000000006C302020207C000000000085
:1025D000003C44380444780000000000207C2020A7
:1025E00020221C000000000000CC4444444C360073
:1025F0000000000000EE4444282810000000000005
:1026000000EE4454545428000000000000CC483030
:102610003048CC000000000000EE442428181010C0
:1026200078000000007C481020447C000000000876
:1026300010101010201010100800001010101010B2
:1026400010101010000000201010101008101010B2
:1026500020000000000000245800000000000000DE
:10266000000000000000000000000000000000006A
:10267000000000000000000000000000000000005A
:102680000C000C000C000C000C000C000C000C00EA
:1026900000000C000000000000000000000000002E
:1026A00000001DC01DC008800880088000000000D8
:1026B000000000000000000000000000000000001A
:1026C0000D800D800D800D803FC01B003FC01B00A2
:1026D0001B001B001B0000000000000000000400A5
:1026E0001F803180318038001E000F000380318050
:1026F00031803F00040004000000000000000000E2
:1027000018002400240018C007801E0031800240F9
:1027100002400180000000000000000000000000F6
:1027200000000F001800180018000C001D80370072
:1027300033001D80000000000000000000000000C9
:102740000000070007000200020002000000000075
:102750000000000000000000000000000000000079
:102760000300030006000E000C000C000C000C001F
:102770000E0006000300030000000000000000003F
:10278000180018000C0006000600060006000600EF
:1027900006000C001C0018000000000000000000F3
:1027A000060006003FC03FC00F001F8019800000D8
:1027B0000000000000000000000000000000000019
:1027C000000000000400040004003F800400040036
:1027D00004000000000000000000000000000000F5
:1027E00000000000000000000000000000000000E9
:1027F000060004000C0008000800000000000000B3
:10280000000000000000000000003F800000000009
:1028100000000000000000000000000000000000B8
:1028200000000000000000000000000000000000A8
:102830000C000C000000000000000000000000C0C0
:1028400000C0018001800300030006000C000C00A2
:1028500018001800300030000000000000000000E8
:102860000E001B0031803180318031803180318019
:102870001B000E000000000000000000000000002F
:1028800006003E00060006000600060006000600E0
:1028900006003FC000000000000000000000000033
:1028A0000F00198031803180030006000C001800F1
:1028B00030003F8000000000000000000000000029
:1028C0003F006180018003001F00038001800180C0
:1028D00061803F00000000000000000000000000D8
:1028E000070007000F000B001B00130033003F80A0
:1028F00003000F8000000000000000000000000046
:102900001F801800180018001F001180018001802E
:1029100021801F00000000000000000000000000F7
:1029200007801C001800300037003980318031806A
:1029300019800F00000000000000000000000000EF
:102940007F004300030006000600060006000C009E
:102950000C000C000000000000000000000000005F
:102960001F003180318031801F0031803180318003
:1029700031801F0000000000000000000000000087
:102980001E0033003180318033801D8001800300C0
:1029900007003C00000000000000000000000000F4
:1029A0000000000000000C000C000000000000000F
:1029B0000C000C00000000000000000000000000FF
:1029C0000000000000000300030000000000000001
:1029D00006000400080008000000000000000000DD
:1029E000000000C00300040018006000180004008C
:1029F000030000C000000000000000000000000014
:102A000000000000000000007FC000007FC0000048
:102A100000000000000000000000000000000000B6
:102A20000000600018000400030000C00300040060
:102A3000180060000000000000000000000000001E
:102A400000001F0031803180018007000C000C0065
:102A500000000C000000000000000000000000006A
:102A60000E00110021002100270029002900270065
:102A7000200011000E000000000000000000000017
:102A800000003F000F000900198019801F8030C02E
:102A900030C079E0000000000000000000000000ED
:102AA00000007F003180318031803F0031803180F3
:102AB00031807F00000000000000000000000000E6
:102AC00000001F4030C06040600060006000604057
:102AD00030801F0000000000000000000000000027
:102AE00000007F00318030C030C030C030C030C006
:102AF00031807F00000000000000000000000000A6
:102B000000007F803080308032003E003200308014
:102B100030807F8000000000000000000000000006
:102B200000007FC03040304032003E0032003000B4
:102B300030007C00000000000000000000000000E9
:102B400000001E80318060806000600067C061808E
:102B500031801F00000000000000000000000000A5
:102B600000007BC03180318031803F8031803180F6
:102B700031807BC000000000000000000000000069
:102B800000003FC006000600060006000600060022
:102B900006003FC000000000000000000000000030
:102BA00000001FC003000300030003006300630074
:102BB00063003E0000000000000000000000000074
:102BC00000007BC03180330036003C003E00330003
:102BD000318079C00000000000000000000000000B
:102BE00000007E0018001800180018001840184057
:102BF00018407FC00000000000000000000000003E
:102C00000000E0E060C071C07BC06AC06EC064C0FC
:102C100060C0FBE0000000000000000000000000B9
:102C2000000073C0318039803D803580378033802B
:102C300031807980000000000000000000000000EA
:102C400000001F00318060C060C060C060C060C014
:102C500031801F00000000000000000000000000A4
:102C600000007F0031803180318031803F003000B2
:102C700030007E00000000000000000000000000A6
:102C800000001F00318060C060C060C060C060C0D4
:102C900031801F000CC01F800000000000000000F9
:102CA00000007F003180318031803E003300318070
:102CB00031807CE000000000000000000000000007
:102CC00000001F803180318038001F000380318078
:102CD00031803F0000000000000000000000000004
:102CE00000007F804C804C804C800C000C000C005D
:102CF0000C003F0000000000000000000000000089
:102D000000007BC031803180318031803180318062
:102D100031801F00000000000000000000000000E3
:102D200000007BC0318031801B001B001B000A00AB
:102D30000E000E0000000000000000000000000077
:102D40000000FBE060C064C06EC06EC02A803B80A3
:102D50003B80318000000000000000000000000007
:102D600000007BC031801B000E000E000E001B0017
:102D700031807BC000000000000000000000000067
:102D8000000079E030C019800F0006000600060040
:102D900006001F800000000000000000000000008E
:102DA00000003F8021802300060004000C001880F2
:102DB00030803F80000000000000000000000000A4
:102DC0000780060006000600060006000600060052
:102DD000060006000600078000000000000030002A
:102DE0003000180018000C000C000600030003005F
:102DF0000180018000C000C0000000000000000051
:102E00001E0006000600060006000600060006007A
:102E10000600060006001E0000000000000004007E
:102E20000A000A001100208020800000000000003D
:102E30000000000000000000000000000000000092
:102E40000000000000000000000000000000000082
:102E5000000000000000000000000000FFE008008B
:102E6000040002000000000000000000000000005C
:102E70000000000000000000000000000000000052
:102E80000000000000001F00018001801F803180D1
:102E900033801DC0000000000000000000000000A2
:102EA0007000300030003700398030C030C030C092
:102EB00039807700000000000000000000000000E2
:102EC0000000000000001E80318060806000608093
:102ED00031801F0000000000000000000000000022
:102EE0000380018001801D8033806180618061806A
:102EF00033801DC000000000000000000000000042
:102F00000000000000001F00318060C07FC0600032
:102F100030C01F8000000000000000000000000022
:102F200007E00C000C003F800C000C000C000C00B3
:102F30000C003F80000000000000000000000000C6
:102F40000000000000001DC033806180618061804E
:102F500033801D80018001801F0000000000000000
:102F6000700030003000370039803180318031808E
:102F700031807BC000000000000000000000000065
:102F80000600060000001E000600060006000600FF
:102F900006003FC00000000000000000000000002C
:102FA0000600060000003F000300030003000300CA
:102FB00003000300030003003E00000000000000C7
:102FC000700030003000378036003C003C00360096
:102FD000330077C000000000000000000000000087
:102FE0001E00060006000600060006000600060099
:102FF00006003FC0000000000000000000000000CC
:103000000000000000007F8036C036C036C036C0E9
:1030100036C076E000000000000000000000000064
:10302000000000000000770039803180318031805D
:1030300031807BC0000000000000000000000000A4
:103040000000000000001F00318060C060C060C050
:1030500031801F00000000000000000000000000A0
:103060000000000000007700398030C030C030C060
:1030700039803700300030007C0000000000000084
:103080000000000000001DC033806180618061800D
:1030900033801D800180018007C000000000000017
:1030A0000000000000007B801CC018001800180001
:1030B00018007F0000000000000000000000000079
:1030C0000000000000001F8031803C001F000380D2
:1030D00031803F0000000000000000000000000000
:1030E0001800180018007F001800180018001800B9
:1030F00018800F0000000000000000000000000029
:103100000000000000007380318031803180318008
:1031100033801DC00000000000000000000000001F
:103120000000000000007BC0318031801B001B00CC
:103130000E000E0000000000000000000000000073
:10314000000000000000F1E060C064C06EC03B8081
:103150003B80318000000000000000000000000003
:103160000000000000007BC01B000E000E000E00DF
:103170001B007BC0000000000000000000000000F9
:1031800000000000000079E030C0198019800B00B9
:103190000F00060006000C003E00000000000000CA
:1031A0000000000000003F80218003000E00180096
:1031B00030803F80000000000000000000000000A0
:1031C00006000C000C000C000C000C0018000C0099
:1031D0000C000C000C0006000000000000000000C5
:1031E00006000600060006000600060006000600AF
:1031F00006000600060006000000000000000000B7
:103200000C0006000600060006000600030006008B
:103210000600060006000C00000000000000000090
:1032200000000000000000001800248003000000DF
:10323000000000000000000000000000000000008E
:10324000000000000000000000000000000000007E
:10325000000000000000000000000000000000006E
:103260000000000000000000070007000700070042
:10327000070007000700020002000000000007002E
:103280000700000000000000000000000000000037
:1032900000001CE01CE01CE0084008400840000062
:1032A000000000000000000000000000000000001E
:1032B0000000000000000CC00CC00CC00CC00CC012
:1032C0003FF03FF00CC00CC03FF03FF00CC00CC012
:1032D0000CC00CC00CC00000000000000000030087
:1032E000030007E00FE0186018001F000FC000E0A7
:1032F000186018601FC01F80030003000300000057
:1033000000000000000000001C002200220022003B
:103310001C6001E00F803C0031C00220022002202E
:1033200001C00000000000000000000000000000DC
:103330000000000003E00FE00C000C0006000F305E
:103340001FF019E018C01FF007B0000000000000D7
:1033500000000000000000000000038003800380E4
:10336000010001000100000000000000000000005A
:10337000000000000000000000000000000000004D
:1033800000C000C001800180018003000300030031
:1033900003000300030001800180018000C000C021
:1033A00000000000000000000C000C0006000600F9
:1033B00006000300030003000300030003000600EF
:1033C000060006000C000C000000000000000000D9
:1033D0000300030003001B601FE0078007800FC08D
:1033E0000CC0000000000000000000000000000011
:1033F00000000000000000000000000003000300C7
:10340000030003003FF03FF003000300030003004C
:1034100000000000000000000000000000000000AC
:10342000000000000000000000000000000000009C
:1034300000000000038003000300060006000400F3
:10344000000000000000000000000000000000007C
:10345000000000003FE03FE000000000000000002E
:10346000000000000000000000000000000000005C
:10347000000000000000000000000000000000004C
:1034800000000000038003800380000000000000B3
:103490000000000000000060006000C000C000C02C
:1034A0000180018003000300060006000C000C00F0
:1034B0000C001800180000000000000000000000D0
:1034C0000F801FC018C030603060306030603060E6
:1034D0003060306018C01FC00F8000000000000086
:1034E000000000000000000003001F001F00030098
:1034F00003000300030003000300030003001FE0B8
:103500001FE00000000000000000000000000000BC
:103510000F801FC038E03060006000C001800300F1
:1035200006000C0018003FE03FE000000000000033
:1035300000000000000000000F803FC030E000608D
:1035400000E007C007C000E00060006060E07FC0EE
:103550003F800000000000000000000000000000AC
:1035600001C003C003C006C00CC00CC018C030C0EE
:103570003FE03FE000C003E003E000000000000087
:1035800000000000000000001FC01FC0180018004D
:103590001F801FC018E000600060006030E03FC086
:1035A0001F8000000000000000000000000000007C
:1035B00003E00FE01E001800380037803FC038E0FD
:1035C0003060306018E01FC007800000000000007D
:1035D00000000000000000003FE03FE030600060BD
:1035E00000C000C000C00180018001800300030012
:1035F00003000000000000000000000000000000C8
:103600000F801FC038E0306038E01FC01FC038E0B6
:103610003060306038E01FC00F8000000000000004
:1036200000000000000000000F001FC038C0306024
:10363000306038E01FE00F6000E000C003C03F8052
:103640003E0000000000000000000000000000003C
:1036500000000000000000000380038003800000E1
:1036600000000000038003800380000000000000D1
:10367000000000000000000000000000000000004A
:1036800001C001C001C00000000000000380030071
:10369000060006000400000000000000000000001A
:1036A00000000000003000F003C007001C0078009C
:1036B0001C00070003C000F0003000000000000004
:1036C00000000000000000000000000000000000FA
:1036D0007FF07FF0000000007FF07FF0000000002E
:1036E00000000000000000000000000000000000DA
:1036F0000000000030003C000F00038000E0007874
:1037000000E003800F003C003000000000000000DB
:10371000000000000000000000000F801FC01860C3
:103720001860006001C00380030000000000070073
:103730000700000000000000000000000000000082
:1037400003800C8008401040104011C0124012400D
:10375000124011C01000080008400780000000005F
:10376000000000000000000000001F801F80038098
:1037700006C006C00CC00C601FE01FE03030787837
:103780007878000000000000000000000000000049
:1037900000003F803FC01860186018E01FC01FE0A5
:1037A0001870183018303FF03FE0000000000000B3
:1037B0000000000000000000000007B00FF01C70C7
:1037C0003830300030003000300038301C700FE0EE
:1037D00007C0000000000000000000000000000022
:1037E00000007F807FC030E03070303030303030CB
:1037F0003030307030E07FC07F800000000000007B
:10380000000000000000000000003FF03FF0183012
:10381000183019801F801F801980183018303FF031
:103820003FF0000000000000000000000000000069
:1038300000003FF03FF01830183019801F801F80C3
:103840001980180018003F003F0000000000000031
:103850000000000000000000000007B01FF018701A
:1038600030303000300031F831F8303018301FF08F
:1038700007C0000000000000000000000000000081
:1038800000003CF03CF01860186018601FE01FE07A
:103890001860186018603CF03CF000000000000068
:1038A000000000000000000000001FE01FE0030017
:1038B00003000300030003000300030003001FE0F4
:1038C0001FE00000000000000000000000000000F9
:1038D000000003F803F800600060006000603060E2
:1038E0003060306030E03FC00F800000000000001A
:1038F000000000000000000000003EF83EF818E064
:1039000019801B001F001D8018C018C018603E7869
:103910003E38000000000000000000000000000031
:1039200000003F003F000C000C000C000C000C00DD
:103930000C300C300C303FF03FF000000000000075
:1039400000000000000000000000787878783870EF
:103950003CF034B037B037B03330333030307CF8EF
:103960007CF80000000000000000000000000000E3
:10397000000039F03DF01C601E601E601B601B6083
:1039800019E019E018E03EE03E6000000000000091
:103990000000000000000000000007800FC01CE0D5
:1039A0003870303030303030303038701CE00FC07C
:1039B0000780000000000000000000000000000080
:1039C00000003FC03FE018701830183018701FE03A
:1039D0001FC0180018003F003F000000000000005A
:1039E0000000000000000000000007800FC01CE085
:1039F0003870303030303030303038701CE00FC02C
:103A0000078007B00FF00CE000000000000000008D
:103A100000003FC03FE01870183018701FE01FC052
:103A200018E0186018703E383E18000000000000D2
:103A3000000000000000000000000FB01FF0387010
:103A4000303038001F8007E00070303038703FE0C1
:103A500037C000000000000000000000000000006F
:103A600000003FF03FF033303330333003000300C9
:103A70000300030003000FC00FC00000000000009F
:103A8000000000000000000000003CF03CF0186066
:103A90001860186018601860186018601CE00FC08B
:103AA000078000000000000000000000000000008F
:103AB000000078F078F03060306018C018C00D80D9
:103AC0000D800D80070007000700000000000000C7
:103AD000000000000000000000007C7C7C7C3018AE
:103AE00033983398339836D816D01C701C701C70DD
:103AF000183000000000000000000000000000007E
:103B0000000078F078F0306018C00D8007000700E2
:103B10000D8018C0306078F078F0000000000000E0
:103B2000000000000000000000003CF03CF01860C5
:103B30000CC00780078003000300030003000FC0D0
:103B40000FC00000000000000000000000000000A6
:103B500000001FE01FE0186018C001800300030090
:103B600006000C6018601FE01FE00000000000006D
:103B7000000000000000000003C003C003000300B9
:103B8000030003000300030003000300030003001D
:103B90000300030003C003C0000000000000180081
:103BA00018000C000C000C000600060003000300C7
:103BB0000180018000C000C000C000600060000003
:103BC00000000000000000000F000F0003000300D1
:103BD00003000300030003000300030003000300CD
:103BE000030003000F000F000000000000000000B1
:103BF000020007000D8018C0306020200000000087
:103C000000000000000000000000000000000000B4
:103C100000000000000000000000000000000000A4
:103C20000000000000000000000000000000000094
:103C300000000000000000000000FFFCFFFC00008E
:103C400004000300008000000000000000000000ED
:103C50000000000000000000000000000000000064
:103C60000000000000000000000000000000000054
:103C70000FC01FE000600FE01FE0386030E03FF051
:103C80001F700000000000000000000000000000A5
:103C9000700070003000300037803FE03860303016
:103CA0003030303038607FE0778000000000000066
:103CB0000000000000000000000000000000000004
:103CC00007B01FF0183030303000300038301FF0AF
:103CD0000FC0000000000000000000000000000015
:103CE000007000700030003007B01FF018703030E6
:103CF0003030303038701FF807B800000000000086
:103D000000000000000000000000000000000000B3
:103D100007801FE018603FF03FF0300018301FF0C0
:103D200007C00000000000000000000000000000CC
:103D300003F007F0060006001FE01FE00600060083
:103D40000600060006001FE01FE000000000000063
:103D50000000000000000000000000000000000063
:103D600007B81FF8187030303030303018701FF03E
:103D700007B0003000700FE00FC00000000000002E
:103D800038003800180018001BC01FE01C601860C5
:103D90001860186018603CF03CF000000000000063
:103DA000000000000000000003000300000000000D
:103DB0001F001F00030003000300030003001FE0B7
:103DC0001FE00000000000000000000000000000F4
:103DD00003000300000000001FC01FC000C000C09F
:103DE00000C000C000C000C000C000C001C03F80D3
:103DF0003F000000000000003800380018001800E4
:103E00001BE01BE01B001E001E001B00198039F088
:103E100039F0000000000000000000000000000079
:103E20001F001F0003000300030003000300030042
:103E30000300030003001FE01FE00000000000007B
:103E40000000000000000000000000000000000072
:103E50007EE07FF0333033303330333033307BB873
:103E60007BB800000000000000000000000000001F
:103E700000000000000000003BC03FE01C60186034
:103E80001860186018603CF03CF000000000000072
:103E90000000000000000000000000000000000022
:103EA00007801FE0186030303030303018601FE07D
:103EB000078000000000000000000000000000007B
:103EC000000000000000000077807FE038603030A4
:103ED0003030303038603FE03780300030007C00D8
:103EE0007C00000000000000000000000000000056
:103EF00007B81FF8187030303030303018701FF0AD
:103F000007B00030003000F800F8000000000000AA
:103F100000000000000000003CE03DF00F300E000B
:103F20000C000C000C003FC03FC00000000000006F
:103F30000000000000000000000000000000000081
:103F400007E01FE018601E000FC001E018601FE0CE
:103F50001F800000000000000000000000000000C2
:103F600000000C000C000C003FE03FE00C000C00D7
:103F70000C000C000C300FF007C000000000000027
:103F80000000000000000000000000000000000031
:103F900038E038E0186018601860186018E01FF00A
:103FA0000F70000000000000000000000000000092
:103FB000000000000000000078F078F0306018C0C9
:103FC00018C00D800D8007000700000000000000F1
:103FD00000000000000000000000000000000000E1
:103FE00078F078F03260326037E01DC01DC018C034
:103FF00018C00000000000000000000000000000E9
:1040000000000000000000003CF03CF00CC0078005
:10401000030007800CC03CF03CF0000000000000F2
:104020000000000000000000000000000000000090
:1040300078F078F0306018C018C00D800F8007004D
:10404000060006000C007F007F000000000000005A
:1040500000000000000000001FE01FE018C0018009
:10406000030006000C601FE01FE0000000000000DD
:10407000000000000000000001C003C003000300B6
:1040800003000300030007000E0007000300030005
:104090000300030003C001C0000000000000000096
:1040A00003000300030003000300030003000300F8
:1040B00003000300030003000300030003000300E8
:1040C00000000000000000001C001E0006000600AA
:1040D0000600060006000700038007000600060031
:1040E000060006001E001C0000000000000000008A
:1040F000000000000000000000000E003F3033F020
:1041000001E00000000000000000000000000000CE
:10411000000000000000000000000000000000009F
:10412000000000000000000000000000000000008F
:10413000000000000000000000000000000000007F
:10414000000000000000000000000000000000006F
:10415000000000000000000000000000000000005F
:104160000000000003800003800003800003800043
:1041700003800003800003800003800003800001AF
:104180000000010000000000000000038000038028
:10419000000000000000000000000000000000001F
:1041A0000000000000000000000000000000000E01
:1041B00070000E70000E7000042000042000042027
:1041C00000042000000000000000000000000000CB
:1041D00000000000000000000000000000000000DF
:1041E00000000000000000000000000000000000CF
:1041F0000000000006600006600006600006600027
:104200000660003FF8003FF8000660000CC0003F69
:10421000F8003FF8000CC0000CC0000CC0000CC03F
:10422000000CC000000000000000000000000000C2
:104230000000000000000000000180000180000775
:10424000B0000FF0001870001870001C00000F8004
:104250000007E00000F0001830001C30001C700067
:104260001FE0001BC00001800001800001800001F0
:1042700080000000000000000000000000000000BE
:10428000000000000780000FC0001CE00018600064
:104290001860001CE0000FF80007E0001FF00007A6
:1042A000380006180006180007380003F00001E087
:1042B00000000000000000000000000000000000FE
:1042C00000000000000000000000000000000000EE
:1042D000000003F00007F0000C60000C00000C0070
:1042E000000600000700000F9C001DFC0018F000F5
:1042F0001870000FFC0007DC000000000000000048
:1043000000000000000000000000000000000000AD
:104310000000000000000003800003800003800014
:104320000100000100000100000100000000000089
:10433000000000000000000000000000000000007D
:10434000000000000000000000000000000000006D
:104350000000000000000000000000000018000045
:10436000380000700000F00000E00000E00001C034
:104370000001C00001C00001C00001C00001C00078
:1043800000E00000E0000070000070000038000055
:104390001800000000000000000000000000000005
:1043A000000000001800001C00000E00000E0000BD
:1043B0000700000700000380000380000380000363
:1043C00080000380000380000700000700000F004A
:1043D000000E00001C00001800000000000000009B
:1043E000000000000000000000000000018000014B
:1043F00080000180001DB8001FF80007E00003C026
:104400000003C0000660000660000000000000001D
:10441000000000000000000000000000000000009C
:10442000000000000000000000000000000000008C
:10443000000000000000000000000180000180007A
:104440000180000180000180003FFC003FFC000172
:1044500080000180000180000180000180000000D8
:10446000000000000000000000000000000000004C
:10447000000000000000000000000000000000003C
:10448000000000000000000000000000000000002C
:10449000000000000000000000000000000000001C
:1044A00000E00000C00001C00001800001800003A6
:1044B00000000300000000000000000000000000F9
:1044C00000000000000000000000000000000000EC
:1044D0000000000000000000001FF8001FF80000AE
:1044E00000000000000000000000000000000000CC
:1044F00000000000000000000000000000000000BC
:1045000000000000000000000000000000000000AB
:10451000000000000000000000000000000000009B
:10452000000000000000000000000000000000008B
:1045300003C00003C00003C0000000000000000032
:104540000000000000000000000000000000001853
:10455000000018000038000030000070000060000B
:1045600000600000C00000C0000180000180000366
:1045700000000300000600000600000E00000C0012
:10458000001C0000180000180000000000000000DF
:1045900000000000000000000000000003C0000751
:1045A000E0000C30000C3000181800181800181823
:1045B000001818001818001818001818000C3000FF
:1045C0000C300007E00003C0000000000000000005
:1045D00000000000000000000000000000000000DB
:1045E000000000000080000780001F80001D800088
:1045F0000180000180000180000180000180000135
:1046000080000180000180000180001FF8001FF879
:10461000000000000000000000000000000000009A
:1046200000000000000000000000000007C0001FA4
:10463000F00038300030180030180000180000304A
:104640000000600001C0000380000600000C0000B4
:104650001800003FF8003FF80000000000000000D4
:10466000000000000000000000000000000000004A
:104670000000000003C0000FE0000C7000003000DC
:1046800000300000600003C00003E0000070000084
:1046900018000018000018001838001FF0000FC0A4
:1046A000000000000000000000000000000000000A
:1046B00000000000000000000000000000E0000119
:1046C000E00001E0000360000660000660000C608E
:1046D000000C60001860003060003FF8003FF800F8
:1046E00000600003F80003F8000000000000000074
:1046F00000000000000000000000000000000000BA
:10470000000000001FF0001FF0001800001800005B
:104710001800001BC0001FF0001C30000018000033
:1047200018000018000018003030003FF0000FC0E3
:104730000000000000000000000000000000000079
:1047400000000000000000000000000000F800036E
:10475000F8000700000E00000C00001800001BC04D
:10476000001FF0001C30001818001818001818005E
:104770000C38000FF00003E0000000000000000013
:104780000000000000000000000000000000000029
:10479000000000001FF8001FF8001818001838006B
:1047A0000030000030000070000060000060000079
:1047B000E00000C00000C00001C0000180000180D6
:1047C00000000000000000000000000000000000E9
:1047D00000000000000000000000000007E0000FE3
:1047E000F0001C38001818001818000C300007E002
:1047F0000007E0000C300018180018180018180006
:104800001C38000FF00007E000000000000000006E
:104810000000000000000000000000000000000098
:104820000000000007C0000FF0001C300018180046
:104830001818001818000C38000FF80003D80000F2
:10484000180000300000700000E0001FC0001F00D2
:104850000000000000000000000000000000000058
:104860000000000000000000000000000000000048
:10487000000000000000000003C00003C00003C0EF
:104880000000000000000000000000000000000028
:1048900003C00003C00003C00000000000000000CF
:1048A0000000000000000000000000000000000008
:1048B00000000000000000000000000000000000F8
:1048C00000F00000F00000F0000000000000000018
:1048D000000000000000E00001C000018000018035
:1048E00000030000020000000000000000000000C3
:1048F00000000000000000000000000000000000B8
:104900000000001C00003C0000F00003C0000F008D
:10491000003C0000F000003C00000F000003C0005D
:1049200000F000003C00001C00000000000000003F
:104930000000000000000000000000000000000077
:104940000000000000000000000000000000000067
:104950000000007FFC007FFC000000000000007FE2
:10496000FC007FFC000000000000000000000000D0
:104970000000000000000000000000000000000037
:104980000000000000000000000000000000000027
:1049900000007000007800001E000007800001E0A9
:1049A00000007800001E0000780001E00007800091
:1049B0001E000078000070000000000000000000F1
:1049C00000000000000000000000000000000000E7
:1049D0000000000000000007C0000FE00018700099
:1049E00018300018300000700000E00003C0000321
:1049F0008000030000000000000000070000070026
:104A000000000000000000000000000000000000A6
:104A100000000000000000000000000003E00007AC
:104A2000F0000E38000C180018780018F80019D89B
:104A30000019980019980019980018F800187800C3
:104A40001800000C00000E180007F80003E000003A
:104A50000000000000000000000000000000000056
:104A6000000000000000001F80001FC00001C00007
:104A70000360000360000630000630000C30000FB9
:104A8000F8001FF800180C00300C00FC7F00FC7FC1
:104A90000000000000000000000000000000000016
:104AA0000000000000000000000000000000007F87
:104AB000E0007FF0001838001818001818001838A7
:104AC000001FF0001FF800181C00180C00180C0044
:104AD000180C007FF8007FF00000000000000000CC
:104AE00000000000000000000000000000000000C6
:104AF0000000000000000003EC000FFC001C1C0084
:104B0000180C00300C003000003000003000003085
:104B10000000300000180C001C1C000FF80003F00F
:104B20000000000000000000000000000000000085
:104B30000000000000000000000000000000007FF6
:104B4000C0007FF000183800181800180C00180C6E
:104B500000180C00180C00180C00180C0018180095
:104B60001838007FF0007FE0000000000000000027
:104B70000000000000000000000000000000000035
:104B8000000000000000007FF8007FF80018180007
:104B90001818001998001980001F80001F80001944
:104BA00080001998001818001818007FF8007FF886
:104BB00000000000000000000000000000000000F5
:104BC0000000000000000000000000000000003FA6
:104BD000FC003FFC000C0C000C0C000CCC000CC0CA
:104BE000000FC0000FC0000CC0000CC0000C000083
:104BF0000C00003FC0003FC00000000000000000AB
:104C000000000000000000000000000000000000A4
:104C10000000000000000003EC000FFC001C1C0062
:104C2000180C00300C0030000030000030FE003066
:104C3000FE00300C00380C001C1C000FFC0003F0C0
:104C40000000000000000000000000000000000064
:104C50000000000000000000000000000000007ED6
:104C60007E007E7E0018180018180018180018180A
:104C7000001FF8001FF80018180018180018180076
:104C80001818007E7E007E7E0000000000000000FC
:104C90000000000000000000000000000000000014
:104CA000000000000000001FF8001FF80001800055
:104CB000018000018000018000018000018000016E
:104CC00080000180000180000180001FF8001FF8B3
:104CD00000000000000000000000000000000000D4
:104CE00000000000000000000000000000000007BD
:104CF000FE0007FE000030000030000030000030F1
:104D000000003000303000303000303000303000F3
:104D10003060003FE0000F80000000000000000055
:104D20000000000000000000000000000000000083
:104D3000000000000000007F3E007F3E00183000B1
:104D400018600018C0001980001B80001FC0001CE4
:104D5000E0001870001830001838007F1F007F1F17
:104D60000000000000000000000000000000000043
:104D70000000000000000000000000000000007FB4
:104D800080007F80000C00000C00000C00000C0074
:104D9000000C00000C00000C0C000C0C000C0C00B3
:104DA0000C0C007FFC007FFC0000000000000000F5
:104DB00000000000000000000000000000000000F3
:104DC00000000000000000F00F00F81F00381C0079
:104DD0003C3C003C3C00366C00366C0033CC00336D
:104DE000CC00318C00300C00300C00FE7F00FE7FC8
:104DF00000000000000000000000000000000000B3
:104E0000000000000000000000000000000000782A
:104E1000FE0078FE001C18001E18001F18001B184A
:104E2000001B980019D80018D80018F8001878004E
:104E30001838007F18007F180000000000000000F4
:104E40000000000000000000000000000000000062
:104E50000000000000000003C0000FF0001C38003C
:104E6000181800381C00300C00300C00300C0030DA
:104E70000C00381C001818001C38000FF00003C08C
:104E80000000000000000000000000000000000022
:104E90000000000000000000000000000000003FD3
:104EA000F0003FF8000C1C000C0C000C0C000C0C6B
:104EB000000C18000FF8000FE0000C00000C0000C0
:104EC0000C00003FC0003FC00000000000000000D8
:104ED00000000000000000000000000000000000D2
:104EE0000000000000000003C0000FF0001C3800AC
:104EF000181800381C00300C00300C00300C00304A
:104F00000C00381C001818001C38000FF00007C0F7
:104F10000007CC000FFC000C38000000000000006F
:104F20000000000000000000000000000000007F02
:104F3000E0007FF000183800181800181800183822
:104F4000001FF0001FC00018E000187000183000AB
:104F50001838007F1E007F0E0000000000000000D7
:104F60000000000000000000000000000000000041
:104F70000000000000000007D8000FF8001C3800F7
:104F80001818001818001E00000FC00003F00000E1
:104F900078001818001818001C38001FF0001BE0DB
:104FA0000000000000000000000000000000000001
:104FB0000000000000000000000000000000003FB2
:104FC000FC003FFC00318C00318C00318C00318CB6
:104FD000000180000180000180000180000180004C
:104FE0000180000FF0000FF0000000000000000042
:104FF00000000000000000000000000000000000B1
:10500000000000000000007E7E007E7E0018180078
:105010001818001818001818001818001818001888
:1050200018001818001818000C30000FF00003C00A
:105030000000000000000000000000000000000070
:105040000000000000000000000000000000007FE1
:105050007F007F7F00180C000C18000C18000C1843
:1050600000063000063000036000036000036000AB
:1050700001C00001C000008000000000000000002E
:105080000000000000000000000000000000000020
:1050900000000000000000FE3F80FE3F8030060060
:1050A00030060030860019CC0019CC001B6C001BA8
:1050B0006C001E7C000E38000E38000C18000C1816
:1050C00000000000000000000000000000000000E0
:1050D0000000000000000000000000000000007E52
:1050E0007E007E7E001818000C300006600003C0B1
:1050F0000001800001800003C0000660000C300049
:105100001818007E7E007E7E000000000000000077
:10511000000000000000000000000000000000008F
:10512000000000000000007C7E007C7E001818005B
:105130000C300006600006600003C0000180000122
:1051400080000180000180000180000FF0000FF05E
:10515000000000000000000000000000000000004F
:105160000000000000000000000000000000001F20
:10517000F8001FF80018180018300018600018C058
:10518000000180000300000618000C180018180029
:105190003018003FF8003FF8000000000000000059
:1051A00000000000000000000000000000000000FF
:1051B0000000000001F00001F0000180000180000B
:1051C0000180000180000180000180000180000159
:1051D00080000180000180000180000180000180CA
:1051E0000001800001F00001F0000000000000005C
:1051F0000000000000001800001800001C00000C57
:1052000000000E000006000006000003000003007E
:105210000001800001800000C00000C000006000AC
:10522000006000007000003000003800001800002E
:105230001800000000000000000000000000000056
:10524000000000000F80000F80000180000180003E
:1052500001800001800001800001800001800001C8
:105260008000018000018000018000018000018039
:10527000000180000F80000F80000000000000008F
:1052800000000000000000000000800001C00003DA
:10529000E0000770000630000C1800180C00100425
:1052A00000000000000000000000000000000000FE
:1052B00000000000000000000000000000000000EE
:1052C00000000000000000000000000000000000DE
:1052D00000000000000000000000000000000000CE
:1052E00000000000000000000000000000000000BE
:1052F00000000000000000000000000000000000AE
:10530000000000000000000000000000000000009D
:10531000FFFF00FFFF00000000030000038000000B
:10532000E00000600000000000000000000000003D
:10533000000000000000000000000000000000006D
:10534000000000000000000000000000000000005D
:10535000000000000000000000000000000000004D
:10536000000000000000000000000000000000003D
:105370000FC0001FE00000300000300007F0001FE9
:10538000F0003830003030003070001FFC000FBCDF
:10539000000000000000000000000000000000000D
:1053A000000000000000000000000000780000780D
:1053B00000001800001800001BE0001FF8001C1877
:1053C00000180C00180C00180C00180C00180C0029
:1053D0001C18007FF8007BE00000000000000000C7
:1053E00000000000000000000000000000000000BD
:1053F00000000000000000000000000000000000AD
:1054000003EC000FFC001C1C00380C00300C0030BA
:105410000000300000380C001C1C000FF80003F0E6
:10542000000000000000000000000000000000007C
:1054300000000000000000000000000000780000F4
:10544000780000180000180007D8001FF80018386E
:1054500000301800301800301800301800301800E4
:105460001838001FFE0007DE0000000000000000EA
:10547000000000000000000000000000000000002C
:10548000000000000000000000000000000000001C
:1054900007E0001FF800181800300C003FFC003F28
:1054A000FC00300000300000180C001FFC0007F06A
:1054B00000000000000000000000000000000000EC
:1054C00000000000000000000000000001FC0003DC
:1054D000FC000600000600003FF8003FF800060050
:1054E000000600000600000600000600000600009E
:1054F0000600003FF0003FF0000000000000000048
:10550000000000000000000000000000000000009B
:10551000000000000000000000000000000000008B
:1055200007DE001FFE001838003018003018003069
:1055300018003018003018001838001FF80007D87D
:10554000000018000018000038000FF0000FC00025
:10555000000000000000000000000000780000785B
:1055600000001800001800001BE0001FF0001C38AD
:10557000001818001818001818001818001818003B
:105580001818007E7E007E7E0000000000000000F3
:10559000000000000000000000000000000000000B
:1055A00000000000018000018000000000000000F9
:1055B0001F80001F80000180000180000180000129
:1055C00080000180000180000180003FFC003FFC62
:1055D00000000000000000000000000000000000CB
:1055E00000000000000000000000000000C00000FB
:1055F000C0000000000000001FF0001FF00000309D
:1056000000003000003000003000003000003000AA
:10561000003000003000003000003000003000009A
:1056200070001FE0001F800000000000000000006C
:10563000000000003C00003C00000C00000C0000DA
:105640000CF8000CF8000CC0000D80000F80000F5B
:1056500000000F80000DC0000CE0003C7C003C7C92
:10566000000000000000000000000000000000003A
:105670000000000000000000000000001F80001F6C
:105680008000018000018000018000018000018015
:105690000001800001800001800001800001800085
:1056A0000180003FFC003FFC000000000000000003
:1056B00000000000000000000000000000000000EA
:1056C00000000000000000000000000000000000DA
:1056D000F77800FFFC0039CC00318C00318C0031B0
:1056E0008C00318C00318C00318C00FDEF00FDEF1F
:1056F00000000000000000000000000000000000AA
:105700000000000000000000000000000000000099
:1057100000000000000000007BE0007FF0001C386B
:105720000018180018180018180018180018180089
:105730001818007E7E007E7E000000000000000041
:105740000000000000000000000000000000000059
:105750000000000000000000000000000000000049
:1057600003C0000FF0001C3800381C00300C003063
:105770000C00300C00381C001C38000FF00003C077
:105780000000000000000000000000000000000019
:105790000000000000000000000000000000000009
:1057A00000000000000000007BE0007FF8001C18F3
:1057B00000180C00180C00180C00180C00180C0035
:1057C0001C18001FF8001BE000180000180000184B
:1057D00000007F00007F00000000000000000000CB
:1057E00000000000000000000000000000000000B9
:1057F00007DE001FFE001838003018003018003097
:1058000018003018003018001838001FF80007D8AA
:105810000000180000180000180000FE0000FE0044
:105820000000000000000000000000000000000078
:1058300000000000000000003E78003EFC0007CCA5
:105840000007000006000006000006000006000039
:105850000600003FF0003FF00000000000000000E4
:105860000000000000000000000000000000000038
:105870000000000000000000000000000000000028
:1058800007F8000FF8001818001818001F80000F04
:10589000F00000F8001818001838001FF0001FE092
:1058A00000000000000000000000000000000000F8
:1058B0000000000000000000000000000C00000CD0
:1058C00000000C00000C00003FF0003FF0000C0056
:1058D000000C00000C00000C00000C00000C00008C
:1058E0000C1C0007FC0003F000000000000000009A
:1058F00000000000000000000000000000000000A8
:105900000000000000000000000000000000000097
:1059100078780078780018180018180018180018FF
:1059200018001818001818001838000FFE0007DEBD
:105930000000000000000000000000000000000067
:105940000000000000000000000000000000000057
:1059500000000000000000007C3E007C3E001818A3
:10596000001818000C30000C3000066000066000C3
:1059700007E00003C00003C00000000000000000BA
:105980000000000000000000000000000000000017
:105990000000000000000000000000000000000007
:1059A000783C00783C003118003398003398001A96
:1059B000B0001EF0001EF0001C60000C60000C60C7
:1059C00000000000000000000000000000000000D7
:1059D00000000000000000000000000000000000C7
:1059E00000000000000000003E7C003E7C000C3007
:1059F0000006600003C00001800003C000066000D4
:105A00000C30003E7C003E7C0000000000000000E6
:105A10000000000000000000000000000000000086
:105A20000000000000000000000000000000000076
:105A30007E1F007E1F00180C000C18000C180006BA
:105A4000300006300003600003E00001C00000C029
:105A5000000180000180000300003FC0003FC00043
:105A60000000000000000000000000000000000036
:105A700000000000000000001FF8001FF8001830B0
:105A80000018600000C0000180000300000618003C
:105A90000C18001FF8001FF80000000000000000B4
:105AA00000000000000000000000000000000000F6
:105AB0000000000000E00001E00001800001800023
:105AC0000180000180000180000180000380000748
:105AD000000003800001800001800001800001803F
